{
  "_format": "hh-sol-artifact-1",
  "contractName": "DAO",
  "sourceName": "contracts/DAO.sol",
  "abi": [
    {
      "inputs": [
        {
          "internalType": "address",
          "name": "_tokenAddress",
          "type": "address"
        }
      ],
      "stateMutability": "nonpayable",
      "type": "constructor"
    },
    {
      "anonymous": false,
      "inputs": [
        {
          "indexed": true,
          "internalType": "uint256",
          "name": "proposalId",
          "type": "uint256"
        },
        {
          "indexed": false,
          "internalType": "string",
          "name": "title",
          "type": "string"
        }
      ],
      "name": "ProposalCreated",
      "type": "event"
    },
    {
      "anonymous": false,
      "inputs": [
        {
          "indexed": true,
          "internalType": "uint256",
          "name": "proposalId",
          "type": "uint256"
        },
        {
          "indexed": false,
          "internalType": "address",
          "name": "voter",
          "type": "address"
        },
        {
          "indexed": false,
          "internalType": "uint256",
          "name": "vote",
          "type": "uint256"
        }
      ],
      "name": "Voted",
      "type": "event"
    },
    {
      "inputs": [],
      "name": "admin",
      "outputs": [
        {
          "internalType": "address",
          "name": "",
          "type": "address"
        }
      ],
      "stateMutability": "view",
      "type": "function"
    },
    {
      "inputs": [
        {
          "internalType": "string",
          "name": "_title",
          "type": "string"
        },
        {
          "internalType": "string",
          "name": "_description",
          "type": "string"
        },
        {
          "internalType": "uint256",
          "name": "_proposalDeadline",
          "type": "uint256"
        },
        {
          "internalType": "uint256",
          "name": "_minimumVotes",
          "type": "uint256"
        }
      ],
      "name": "createProposal",
      "outputs": [],
      "stateMutability": "nonpayable",
      "type": "function"
    },
    {
      "inputs": [
        {
          "internalType": "uint256",
          "name": "",
          "type": "uint256"
        }
      ],
      "name": "proposals",
      "outputs": [
        {
          "internalType": "uint256",
          "name": "id",
          "type": "uint256"
        },
        {
          "internalType": "string",
          "name": "title",
          "type": "string"
        },
        {
          "internalType": "string",
          "name": "description",
          "type": "string"
        },
        {
          "internalType": "uint256",
          "name": "proposalDeadline",
          "type": "uint256"
        },
        {
          "internalType": "uint256",
          "name": "minimumVotes",
          "type": "uint256"
        },
        {
          "internalType": "uint256",
          "name": "votesForOptionA",
          "type": "uint256"
        },
        {
          "internalType": "uint256",
          "name": "votesForOptionB",
          "type": "uint256"
        },
        {
          "internalType": "bool",
          "name": "closed",
          "type": "bool"
        },
        {
          "internalType": "bool",
          "name": "executed",
          "type": "bool"
        }
      ],
      "stateMutability": "view",
      "type": "function"
    },
    {
      "inputs": [],
      "name": "token",
      "outputs": [
        {
          "internalType": "contract IERC20",
          "name": "",
          "type": "address"
        }
      ],
      "stateMutability": "view",
      "type": "function"
    },
    {
      "inputs": [
        {
          "internalType": "uint256",
          "name": "_proposalId",
          "type": "uint256"
        },
        {
          "internalType": "uint256",
          "name": "_vote",
          "type": "uint256"
        }
      ],
      "name": "vote",
      "outputs": [],
      "stateMutability": "nonpayable",
      "type": "function"
    }
  ],
  "bytecode": "0x608060405234801561001057600080fd5b50604051611022380380611022833981810160405281019061003291906100ce565b806000806101000a81548173ffffffffffffffffffffffffffffffffffffffff021916908373ffffffffffffffffffffffffffffffffffffffff16021790555033600260006101000a81548173ffffffffffffffffffffffffffffffffffffffff021916908373ffffffffffffffffffffffffffffffffffffffff16021790555050610140565b6000815190506100c881610129565b92915050565b6000602082840312156100e057600080fd5b60006100ee848285016100b9565b91505092915050565b600061010282610109565b9050919050565b600073ffffffffffffffffffffffffffffffffffffffff82169050919050565b610132816100f7565b811461013d57600080fd5b50565b610ed38061014f6000396000f3fe608060405234801561001057600080fd5b50600436106100575760003560e01c8063013cf08b1461005c5780636b5e176614610094578063b384abef146100b0578063f851a440146100cc578063fc0c546a146100ea575b600080fd5b61007660048036038101906100719190610843565b610108565b60405161008b99989796959493929190610aaa565b60405180910390f35b6100ae60048036038101906100a991906107b0565b610290565b005b6100ca60048036038101906100c5919061086c565b61048b565b005b6100d4610646565b6040516100e191906109a9565b60405180910390f35b6100f261066c565b6040516100ff91906109ed565b60405180910390f35b6001818154811061011857600080fd5b906000526020600020906008020160009150905080600001549080600101805461014190610cbb565b80601f016020809104026020016040519081016040528092919081815260200182805461016d90610cbb565b80156101ba5780601f1061018f576101008083540402835291602001916101ba565b820191906000526020600020905b81548152906001019060200180831161019d57829003601f168201915b5050505050908060020180546101cf90610cbb565b80601f01602080910402602001604051908101604052809291908181526020018280546101fb90610cbb565b80156102485780601f1061021d57610100808354040283529160200191610248565b820191906000526020600020905b81548152906001019060200180831161022b57829003601f168201915b5050505050908060030154908060040154908060050154908060060154908060070160009054906101000a900460ff16908060070160019054906101000a900460ff16905089565b600260009054906101000a900473ffffffffffffffffffffffffffffffffffffffff1673ffffffffffffffffffffffffffffffffffffffff163373ffffffffffffffffffffffffffffffffffffffff1614610320576040517f08c379a000000000000000000000000000000000000000000000000000000000815260040161031790610a6a565b60405180910390fd5b60006001805490509050600160405180610120016040528083815260200187815260200186815260200185815260200184815260200160008152602001600081526020016000151581526020016000151581525090806001815401808255809150506001900390600052602060002090600802016000909190919091506000820151816000015560208201518160010190805190602001906103c3929190610690565b5060408201518160020190805190602001906103e0929190610690565b50606082015181600301556080820151816004015560a0820151816005015560c0820151816006015560e08201518160070160006101000a81548160ff0219169083151502179055506101008201518160070160016101000a81548160ff0219169083151502179055505050807f9c770c289ab5bf7e57cb1d23c8ceae993aea46eb64847072fd3d78ca60d3e4328660405161047c9190610a08565b60405180910390a25050505050565b60018054905082106104d2576040517f08c379a00000000000000000000000000000000000000000000000000000000081526004016104c990610a4a565b60405180910390fd5b60006001838154811061050e577f4e487b7100000000000000000000000000000000000000000000000000000000600052603260045260246000fd5b906000526020600020906008020190508060070160009054906101000a900460ff1615610570576040517f08c379a000000000000000000000000000000000000000000000000000000000815260040161056790610a8a565b60405180910390fd5b806003015442106105b6576040517f08c379a00000000000000000000000000000000000000000000000000000000081526004016105ad90610a2a565b60405180910390fd5b60018214156105e05760018160050160008282546105d49190610bb7565b92505081905550610607565b60028214156106065760018160060160008282546105fe9190610bb7565b925050819055505b5b827f1abe610cf2bf87e57dcc1181fcf5ac0934e843d8344ab9eed6e86c799f62585e33846040516106399291906109c4565b60405180910390a2505050565b600260009054906101000a900473ffffffffffffffffffffffffffffffffffffffff1681565b60008054906101000a900473ffffffffffffffffffffffffffffffffffffffff1681565b82805461069c90610cbb565b90600052602060002090601f0160209004810192826106be5760008555610705565b82601f106106d757805160ff1916838001178555610705565b82800160010185558215610705579182015b828111156107045782518255916020019190600101906106e9565b5b5090506107129190610716565b5090565b5b8082111561072f576000816000905550600101610717565b5090565b600061074661074184610b6a565b610b45565b90508281526020810184848401111561075e57600080fd5b610769848285610c79565b509392505050565b600082601f83011261078257600080fd5b8135610792848260208601610733565b91505092915050565b6000813590506107aa81610e86565b92915050565b600080600080608085870312156107c657600080fd5b600085013567ffffffffffffffff8111156107e057600080fd5b6107ec87828801610771565b945050602085013567ffffffffffffffff81111561080957600080fd5b61081587828801610771565b93505060406108268782880161079b565b92505060606108378782880161079b565b91505092959194509250565b60006020828403121561085557600080fd5b60006108638482850161079b565b91505092915050565b6000806040838503121561087f57600080fd5b600061088d8582860161079b565b925050602061089e8582860161079b565b9150509250929050565b6108b181610c0d565b82525050565b6108c081610c1f565b82525050565b6108cf81610c55565b82525050565b60006108e082610b9b565b6108ea8185610ba6565b93506108fa818560208601610c88565b61090381610dab565b840191505092915050565b600061091b601283610ba6565b915061092682610dbc565b602082019050919050565b600061093e601383610ba6565b915061094982610de5565b602082019050919050565b6000610961602383610ba6565b915061096c82610e0e565b604082019050919050565b6000610984601283610ba6565b915061098f82610e5d565b602082019050919050565b6109a381610c4b565b82525050565b60006020820190506109be60008301846108a8565b92915050565b60006040820190506109d960008301856108a8565b6109e6602083018461099a565b9392505050565b6000602082019050610a0260008301846108c6565b92915050565b60006020820190508181036000830152610a2281846108d5565b905092915050565b60006020820190508181036000830152610a438161090e565b9050919050565b60006020820190508181036000830152610a6381610931565b9050919050565b60006020820190508181036000830152610a8381610954565b9050919050565b60006020820190508181036000830152610aa381610977565b9050919050565b600061012082019050610ac0600083018c61099a565b8181036020830152610ad2818b6108d5565b90508181036040830152610ae6818a6108d5565b9050610af5606083018961099a565b610b02608083018861099a565b610b0f60a083018761099a565b610b1c60c083018661099a565b610b2960e08301856108b7565b610b376101008301846108b7565b9a9950505050505050505050565b6000610b4f610b60565b9050610b5b8282610ced565b919050565b6000604051905090565b600067ffffffffffffffff821115610b8557610b84610d7c565b5b610b8e82610dab565b9050602081019050919050565b600081519050919050565b600082825260208201905092915050565b6000610bc282610c4b565b9150610bcd83610c4b565b9250827fffffffffffffffffffffffffffffffffffffffffffffffffffffffffffffffff03821115610c0257610c01610d1e565b5b828201905092915050565b6000610c1882610c2b565b9050919050565b60008115159050919050565b600073ffffffffffffffffffffffffffffffffffffffff82169050919050565b6000819050919050565b6000610c6082610c67565b9050919050565b6000610c7282610c2b565b9050919050565b82818337600083830152505050565b60005b83811015610ca6578082015181840152602081019050610c8b565b83811115610cb5576000848401525b50505050565b60006002820490506001821680610cd357607f821691505b60208210811415610ce757610ce6610d4d565b5b50919050565b610cf682610dab565b810181811067ffffffffffffffff82111715610d1557610d14610d7c565b5b80604052505050565b7f4e487b7100000000000000000000000000000000000000000000000000000000600052601160045260246000fd5b7f4e487b7100000000000000000000000000000000000000000000000000000000600052602260045260246000fd5b7f4e487b7100000000000000000000000000000000000000000000000000000000600052604160045260246000fd5b6000601f19601f8301169050919050565b7f50726f706f73616c2068617320656e6465640000000000000000000000000000600082015250565b7f496e76616c69642070726f706f73616c20494400000000000000000000000000600082015250565b7f4f6e6c79207468652061646d696e2063616e206372656174652070726f706f7360008201527f616c730000000000000000000000000000000000000000000000000000000000602082015250565b7f50726f706f73616c20697320636c6f7365640000000000000000000000000000600082015250565b610e8f81610c4b565b8114610e9a57600080fd5b5056fea2646970667358221220a58e862095d65a8d035191d5af54e36e83ab32585be07b7ed1a7332ed9cf858964736f6c63430008040033",
  "linkReferences": {},
  "deployedLinkReferences": {}
}