{
  "_format": "hh-sol-artifact-1",
  "contractName": "DAO",
  "sourceName": "contracts/DAO.sol",
  "abi": [
    {
      "inputs": [
        {
          "internalType": "address",
          "name": "_tokenAddress",
          "type": "address"
        }
      ],
      "stateMutability": "nonpayable",
      "type": "constructor"
    },
    {
      "inputs": [],
      "name": "admin",
      "outputs": [
        {
          "internalType": "address",
          "name": "",
          "type": "address"
        }
      ],
      "stateMutability": "view",
      "type": "function"
    },
    {
      "inputs": [
        {
          "internalType": "string",
          "name": "_title",
          "type": "string"
        },
        {
          "internalType": "string",
          "name": "_description",
          "type": "string"
        },
        {
          "internalType": "uint256",
          "name": "_proposalDeadline",
          "type": "uint256"
        },
        {
          "internalType": "uint256",
          "name": "_minimumVotes",
          "type": "uint256"
        }
      ],
      "name": "createProposal",
      "outputs": [],
      "stateMutability": "nonpayable",
      "type": "function"
    },
    {
      "inputs": [
        {
          "internalType": "uint256",
          "name": "",
          "type": "uint256"
        }
      ],
      "name": "proposals",
      "outputs": [
        {
          "internalType": "uint256",
          "name": "id",
          "type": "uint256"
        },
        {
          "internalType": "string",
          "name": "title",
          "type": "string"
        },
        {
          "internalType": "string",
          "name": "description",
          "type": "string"
        },
        {
          "internalType": "uint256",
          "name": "proposalDeadline",
          "type": "uint256"
        },
        {
          "internalType": "uint256",
          "name": "minimumVotes",
          "type": "uint256"
        },
        {
          "internalType": "uint256",
          "name": "votesForOptionA",
          "type": "uint256"
        },
        {
          "internalType": "uint256",
          "name": "votesForOptionB",
          "type": "uint256"
        },
        {
          "internalType": "bool",
          "name": "closed",
          "type": "bool"
        },
        {
          "internalType": "bool",
          "name": "executed",
          "type": "bool"
        }
      ],
      "stateMutability": "view",
      "type": "function"
    },
    {
      "inputs": [],
      "name": "token",
      "outputs": [
        {
          "internalType": "contract IERC20",
          "name": "",
          "type": "address"
        }
      ],
      "stateMutability": "view",
      "type": "function"
    },
    {
      "inputs": [
        {
          "internalType": "uint256",
          "name": "_proposalId",
          "type": "uint256"
        },
        {
          "internalType": "uint256",
          "name": "_vote",
          "type": "uint256"
        }
      ],
      "name": "vote",
      "outputs": [],
      "stateMutability": "nonpayable",
      "type": "function"
    }
  ],
  "bytecode": "0x608060405234801561001057600080fd5b50604051610f65380380610f65833981810160405281019061003291906100ce565b806000806101000a81548173ffffffffffffffffffffffffffffffffffffffff021916908373ffffffffffffffffffffffffffffffffffffffff16021790555033600260006101000a81548173ffffffffffffffffffffffffffffffffffffffff021916908373ffffffffffffffffffffffffffffffffffffffff16021790555050610140565b6000815190506100c881610129565b92915050565b6000602082840312156100e057600080fd5b60006100ee848285016100b9565b91505092915050565b600061010282610109565b9050919050565b600073ffffffffffffffffffffffffffffffffffffffff82169050919050565b610132816100f7565b811461013d57600080fd5b50565b610e168061014f6000396000f3fe608060405234801561001057600080fd5b50600436106100575760003560e01c8063013cf08b1461005c5780636b5e176614610094578063b384abef146100b0578063f851a440146100cc578063fc0c546a146100ea575b600080fd5b610076600480360381019061007191906107d1565b610108565b60405161008b999897969594939291906109ed565b60405180910390f35b6100ae60048036038101906100a9919061073e565b610290565b005b6100ca60048036038101906100c591906107fa565b610453565b005b6100d46105d4565b6040516100e19190610937565b60405180910390f35b6100f26105fa565b6040516100ff9190610952565b60405180910390f35b6001818154811061011857600080fd5b906000526020600020906008020160009150905080600001549080600101805461014190610bfe565b80601f016020809104026020016040519081016040528092919081815260200182805461016d90610bfe565b80156101ba5780601f1061018f576101008083540402835291602001916101ba565b820191906000526020600020905b81548152906001019060200180831161019d57829003601f168201915b5050505050908060020180546101cf90610bfe565b80601f01602080910402602001604051908101604052809291908181526020018280546101fb90610bfe565b80156102485780601f1061021d57610100808354040283529160200191610248565b820191906000526020600020905b81548152906001019060200180831161022b57829003601f168201915b5050505050908060030154908060040154908060050154908060060154908060070160009054906101000a900460ff16908060070160019054906101000a900460ff16905089565b600260009054906101000a900473ffffffffffffffffffffffffffffffffffffffff1673ffffffffffffffffffffffffffffffffffffffff163373ffffffffffffffffffffffffffffffffffffffff1614610320576040517f08c379a0000000000000000000000000000000000000000000000000000000008152600401610317906109ad565b60405180910390fd5b60006001805490509050600160405180610120016040528083815260200187815260200186815260200185815260200184815260200160008152602001600081526020016000151581526020016000151581525090806001815401808255809150506001900390600052602060002090600802016000909190919091506000820151816000015560208201518160010190805190602001906103c392919061061e565b5060408201518160020190805190602001906103e092919061061e565b50606082015181600301556080820151816004015560a0820151816005015560c0820151816006015560e08201518160070160006101000a81548160ff0219169083151502179055506101008201518160070160016101000a81548160ff02191690831515021790555050505050505050565b600180549050821061049a576040517f08c379a00000000000000000000000000000000000000000000000000000000081526004016104919061098d565b60405180910390fd5b6000600183815481106104d6577f4e487b7100000000000000000000000000000000000000000000000000000000600052603260045260246000fd5b906000526020600020906008020190508060070160009054906101000a900460ff1615610538576040517f08c379a000000000000000000000000000000000000000000000000000000000815260040161052f906109cd565b60405180910390fd5b8060030154421061057e576040517f08c379a00000000000000000000000000000000000000000000000000000000081526004016105759061096d565b60405180910390fd5b60018214156105a857600181600501600082825461059c9190610afa565b925050819055506105cf565b60028214156105ce5760018160060160008282546105c69190610afa565b925050819055505b5b505050565b600260009054906101000a900473ffffffffffffffffffffffffffffffffffffffff1681565b60008054906101000a900473ffffffffffffffffffffffffffffffffffffffff1681565b82805461062a90610bfe565b90600052602060002090601f01602090048101928261064c5760008555610693565b82601f1061066557805160ff1916838001178555610693565b82800160010185558215610693579182015b82811115610692578251825591602001919060010190610677565b5b5090506106a091906106a4565b5090565b5b808211156106bd5760008160009055506001016106a5565b5090565b60006106d46106cf84610aad565b610a88565b9050828152602081018484840111156106ec57600080fd5b6106f7848285610bbc565b509392505050565b600082601f83011261071057600080fd5b81356107208482602086016106c1565b91505092915050565b60008135905061073881610dc9565b92915050565b6000806000806080858703121561075457600080fd5b600085013567ffffffffffffffff81111561076e57600080fd5b61077a878288016106ff565b945050602085013567ffffffffffffffff81111561079757600080fd5b6107a3878288016106ff565b93505060406107b487828801610729565b92505060606107c587828801610729565b91505092959194509250565b6000602082840312156107e357600080fd5b60006107f184828501610729565b91505092915050565b6000806040838503121561080d57600080fd5b600061081b85828601610729565b925050602061082c85828601610729565b9150509250929050565b61083f81610b50565b82525050565b61084e81610b62565b82525050565b61085d81610b98565b82525050565b600061086e82610ade565b6108788185610ae9565b9350610888818560208601610bcb565b61089181610cee565b840191505092915050565b60006108a9601283610ae9565b91506108b482610cff565b602082019050919050565b60006108cc601383610ae9565b91506108d782610d28565b602082019050919050565b60006108ef602383610ae9565b91506108fa82610d51565b604082019050919050565b6000610912601283610ae9565b915061091d82610da0565b602082019050919050565b61093181610b8e565b82525050565b600060208201905061094c6000830184610836565b92915050565b60006020820190506109676000830184610854565b92915050565b600060208201905081810360008301526109868161089c565b9050919050565b600060208201905081810360008301526109a6816108bf565b9050919050565b600060208201905081810360008301526109c6816108e2565b9050919050565b600060208201905081810360008301526109e681610905565b9050919050565b600061012082019050610a03600083018c610928565b8181036020830152610a15818b610863565b90508181036040830152610a29818a610863565b9050610a386060830189610928565b610a456080830188610928565b610a5260a0830187610928565b610a5f60c0830186610928565b610a6c60e0830185610845565b610a7a610100830184610845565b9a9950505050505050505050565b6000610a92610aa3565b9050610a9e8282610c30565b919050565b6000604051905090565b600067ffffffffffffffff821115610ac857610ac7610cbf565b5b610ad182610cee565b9050602081019050919050565b600081519050919050565b600082825260208201905092915050565b6000610b0582610b8e565b9150610b1083610b8e565b9250827fffffffffffffffffffffffffffffffffffffffffffffffffffffffffffffffff03821115610b4557610b44610c61565b5b828201905092915050565b6000610b5b82610b6e565b9050919050565b60008115159050919050565b600073ffffffffffffffffffffffffffffffffffffffff82169050919050565b6000819050919050565b6000610ba382610baa565b9050919050565b6000610bb582610b6e565b9050919050565b82818337600083830152505050565b60005b83811015610be9578082015181840152602081019050610bce565b83811115610bf8576000848401525b50505050565b60006002820490506001821680610c1657607f821691505b60208210811415610c2a57610c29610c90565b5b50919050565b610c3982610cee565b810181811067ffffffffffffffff82111715610c5857610c57610cbf565b5b80604052505050565b7f4e487b7100000000000000000000000000000000000000000000000000000000600052601160045260246000fd5b7f4e487b7100000000000000000000000000000000000000000000000000000000600052602260045260246000fd5b7f4e487b7100000000000000000000000000000000000000000000000000000000600052604160045260246000fd5b6000601f19601f8301169050919050565b7f50726f706f73616c2068617320656e6465640000000000000000000000000000600082015250565b7f496e76616c69642070726f706f73616c20494400000000000000000000000000600082015250565b7f4f6e6c79207468652061646d696e2063616e206372656174652070726f706f7360008201527f616c730000000000000000000000000000000000000000000000000000000000602082015250565b7f50726f706f73616c20697320636c6f7365640000000000000000000000000000600082015250565b610dd281610b8e565b8114610ddd57600080fd5b5056fea2646970667358221220fe841e1c338a571e6f627189610cbd19369ffe0d1dbfa1d1f7ccd7919af97af664736f6c63430008040033",
  "linkReferences": {},
  "deployedLinkReferences": {}
}