{
  "_format": "hh-sol-artifact-1",
  "contractName": "DAO",
  "sourceName": "contracts/DAO.sol",
  "abi": [
    {
      "inputs": [
        {
          "internalType": "address",
          "name": "_tokenAddress",
          "type": "address"
        }
      ],
      "stateMutability": "nonpayable",
      "type": "constructor"
    },
    {
      "anonymous": false,
      "inputs": [
        {
          "indexed": true,
          "internalType": "uint256",
          "name": "proposalId",
          "type": "uint256"
        },
        {
          "indexed": false,
          "internalType": "string",
          "name": "title",
          "type": "string"
        },
        {
          "indexed": false,
          "internalType": "string",
          "name": "description",
          "type": "string"
        },
        {
          "indexed": false,
          "internalType": "uint256",
          "name": "proposalDeadline",
          "type": "uint256"
        },
        {
          "indexed": false,
          "internalType": "uint256",
          "name": "minimumVotes",
          "type": "uint256"
        },
        {
          "indexed": false,
          "internalType": "uint256",
          "name": "votesForOptionA",
          "type": "uint256"
        },
        {
          "indexed": false,
          "internalType": "uint256",
          "name": "votesForOptionB",
          "type": "uint256"
        },
        {
          "indexed": false,
          "internalType": "bool",
          "name": "closed",
          "type": "bool"
        },
        {
          "indexed": false,
          "internalType": "bool",
          "name": "executed",
          "type": "bool"
        }
      ],
      "name": "ProposalCreated",
      "type": "event"
    },
    {
      "anonymous": false,
      "inputs": [
        {
          "indexed": true,
          "internalType": "uint256",
          "name": "proposalId",
          "type": "uint256"
        },
        {
          "indexed": false,
          "internalType": "address",
          "name": "voter",
          "type": "address"
        },
        {
          "indexed": false,
          "internalType": "uint256",
          "name": "vote",
          "type": "uint256"
        }
      ],
      "name": "Voted",
      "type": "event"
    },
    {
      "inputs": [],
      "name": "admin",
      "outputs": [
        {
          "internalType": "address",
          "name": "",
          "type": "address"
        }
      ],
      "stateMutability": "view",
      "type": "function"
    },
    {
      "inputs": [
        {
          "internalType": "string",
          "name": "_title",
          "type": "string"
        },
        {
          "internalType": "string",
          "name": "_description",
          "type": "string"
        },
        {
          "internalType": "uint256",
          "name": "_proposalDeadline",
          "type": "uint256"
        },
        {
          "internalType": "uint256",
          "name": "_minimumVotes",
          "type": "uint256"
        }
      ],
      "name": "createProposal",
      "outputs": [],
      "stateMutability": "nonpayable",
      "type": "function"
    },
    {
      "inputs": [
        {
          "internalType": "address",
          "name": "_address",
          "type": "address"
        }
      ],
      "name": "isAdmin",
      "outputs": [
        {
          "internalType": "bool",
          "name": "",
          "type": "bool"
        }
      ],
      "stateMutability": "view",
      "type": "function"
    },
    {
      "inputs": [
        {
          "internalType": "uint256",
          "name": "",
          "type": "uint256"
        }
      ],
      "name": "proposals",
      "outputs": [
        {
          "internalType": "uint256",
          "name": "id",
          "type": "uint256"
        },
        {
          "internalType": "string",
          "name": "title",
          "type": "string"
        },
        {
          "internalType": "string",
          "name": "description",
          "type": "string"
        },
        {
          "internalType": "uint256",
          "name": "proposalDeadline",
          "type": "uint256"
        },
        {
          "internalType": "uint256",
          "name": "minimumVotes",
          "type": "uint256"
        },
        {
          "internalType": "uint256",
          "name": "votesForOptionA",
          "type": "uint256"
        },
        {
          "internalType": "uint256",
          "name": "votesForOptionB",
          "type": "uint256"
        },
        {
          "internalType": "bool",
          "name": "closed",
          "type": "bool"
        },
        {
          "internalType": "bool",
          "name": "executed",
          "type": "bool"
        }
      ],
      "stateMutability": "view",
      "type": "function"
    },
    {
      "inputs": [],
      "name": "token",
      "outputs": [
        {
          "internalType": "contract IERC20",
          "name": "",
          "type": "address"
        }
      ],
      "stateMutability": "view",
      "type": "function"
    },
    {
      "inputs": [
        {
          "internalType": "uint256",
          "name": "_proposalId",
          "type": "uint256"
        },
        {
          "internalType": "uint256",
          "name": "_vote",
          "type": "uint256"
        }
      ],
      "name": "vote",
      "outputs": [],
      "stateMutability": "nonpayable",
      "type": "function"
    }
  ],
  "bytecode": "0x608060405234801561001057600080fd5b50604051620011c5380380620011c5833981810160405281019061003491906100d0565b806000806101000a81548173ffffffffffffffffffffffffffffffffffffffff021916908373ffffffffffffffffffffffffffffffffffffffff16021790555033600260006101000a81548173ffffffffffffffffffffffffffffffffffffffff021916908373ffffffffffffffffffffffffffffffffffffffff16021790555050610142565b6000815190506100ca8161012b565b92915050565b6000602082840312156100e257600080fd5b60006100f0848285016100bb565b91505092915050565b60006101048261010b565b9050919050565b600073ffffffffffffffffffffffffffffffffffffffff82169050919050565b610134816100f9565b811461013f57600080fd5b50565b61107380620001526000396000f3fe608060405234801561001057600080fd5b50600436106100625760003560e01c8063013cf08b1461006757806324d7806c1461009f5780636b5e1766146100cf578063b384abef146100eb578063f851a44014610107578063fc0c546a14610125575b600080fd5b610081600480360381019061007c9190610926565b610143565b60405161009699989796959493929190610c21565b60405180910390f35b6100b960048036038101906100b4919061086a565b6102cb565b6040516100c69190610adf565b60405180910390f35b6100e960048036038101906100e49190610893565b610325565b005b6101056004803603810190610100919061094f565b610530565b005b61010f6106eb565b60405161011c9190610a9b565b60405180910390f35b61012d610711565b60405161013a9190610afa565b60405180910390f35b6001818154811061015357600080fd5b906000526020600020906008020160009150905080600001549080600101805461017c90610e44565b80601f01602080910402602001604051908101604052809291908181526020018280546101a890610e44565b80156101f55780601f106101ca576101008083540402835291602001916101f5565b820191906000526020600020905b8154815290600101906020018083116101d857829003601f168201915b50505050509080600201805461020a90610e44565b80601f016020809104026020016040519081016040528092919081815260200182805461023690610e44565b80156102835780601f1061025857610100808354040283529160200191610283565b820191906000526020600020905b81548152906001019060200180831161026657829003601f168201915b5050505050908060030154908060040154908060050154908060060154908060070160009054906101000a900460ff16908060070160019054906101000a900460ff16905089565b6000600260009054906101000a900473ffffffffffffffffffffffffffffffffffffffff1673ffffffffffffffffffffffffffffffffffffffff168273ffffffffffffffffffffffffffffffffffffffff16149050919050565b600260009054906101000a900473ffffffffffffffffffffffffffffffffffffffff1673ffffffffffffffffffffffffffffffffffffffff163373ffffffffffffffffffffffffffffffffffffffff16146103b5576040517f08c379a00000000000000000000000000000000000000000000000000000000081526004016103ac90610be1565b60405180910390fd5b6000600180549050905060016040518061012001604052808381526020018781526020018681526020018581526020018481526020016000815260200160008152602001600015158152602001600015158152509080600181540180825580915050600190039060005260206000209060080201600090919091909150600082015181600001556020820151816001019080519060200190610458929190610735565b506040820151816002019080519060200190610475929190610735565b50606082015181600301556080820151816004015560a0820151816005015560c0820151816006015560e08201518160070160006101000a81548160ff0219169083151502179055506101008201518160070160016101000a81548160ff0219169083151502179055505050807fb31d54f378decb123f5d4790b40c425f0b8d6d7f753d0437d6843a33b5205ce286868686600080600080604051610521989796959493929190610b15565b60405180910390a25050505050565b6001805490508210610577576040517f08c379a000000000000000000000000000000000000000000000000000000000815260040161056e90610bc1565b60405180910390fd5b6000600183815481106105b3577f4e487b7100000000000000000000000000000000000000000000000000000000600052603260045260246000fd5b906000526020600020906008020190508060070160009054906101000a900460ff1615610615576040517f08c379a000000000000000000000000000000000000000000000000000000000815260040161060c90610c01565b60405180910390fd5b8060030154421061065b576040517f08c379a000000000000000000000000000000000000000000000000000000000815260040161065290610ba1565b60405180910390fd5b60018214156106855760018160050160008282546106799190610d2e565b925050819055506106ac565b60028214156106ab5760018160060160008282546106a39190610d2e565b925050819055505b5b827f1abe610cf2bf87e57dcc1181fcf5ac0934e843d8344ab9eed6e86c799f62585e33846040516106de929190610ab6565b60405180910390a2505050565b600260009054906101000a900473ffffffffffffffffffffffffffffffffffffffff1681565b60008054906101000a900473ffffffffffffffffffffffffffffffffffffffff1681565b82805461074190610e44565b90600052602060002090601f01602090048101928261076357600085556107aa565b82601f1061077c57805160ff19168380011785556107aa565b828001600101855582156107aa579182015b828111156107a957825182559160200191906001019061078e565b5b5090506107b791906107bb565b5090565b5b808211156107d45760008160009055506001016107bc565b5090565b60006107eb6107e684610ce1565b610cbc565b90508281526020810184848401111561080357600080fd5b61080e848285610e02565b509392505050565b6000813590506108258161100f565b92915050565b600082601f83011261083c57600080fd5b813561084c8482602086016107d8565b91505092915050565b60008135905061086481611026565b92915050565b60006020828403121561087c57600080fd5b600061088a84828501610816565b91505092915050565b600080600080608085870312156108a957600080fd5b600085013567ffffffffffffffff8111156108c357600080fd5b6108cf8782880161082b565b945050602085013567ffffffffffffffff8111156108ec57600080fd5b6108f88782880161082b565b935050604061090987828801610855565b925050606061091a87828801610855565b91505092959194509250565b60006020828403121561093857600080fd5b600061094684828501610855565b91505092915050565b6000806040838503121561096257600080fd5b600061097085828601610855565b925050602061098185828601610855565b9150509250929050565b61099481610d84565b82525050565b6109a381610d96565b82525050565b6109b281610dcc565b82525050565b6109c181610df0565b82525050565b60006109d282610d12565b6109dc8185610d1d565b93506109ec818560208601610e11565b6109f581610f34565b840191505092915050565b6000610a0d601283610d1d565b9150610a1882610f45565b602082019050919050565b6000610a30601383610d1d565b9150610a3b82610f6e565b602082019050919050565b6000610a53602383610d1d565b9150610a5e82610f97565b604082019050919050565b6000610a76601283610d1d565b9150610a8182610fe6565b602082019050919050565b610a9581610dc2565b82525050565b6000602082019050610ab0600083018461098b565b92915050565b6000604082019050610acb600083018561098b565b610ad86020830184610a8c565b9392505050565b6000602082019050610af4600083018461099a565b92915050565b6000602082019050610b0f60008301846109a9565b92915050565b6000610100820190508181036000830152610b30818b6109c7565b90508181036020830152610b44818a6109c7565b9050610b536040830189610a8c565b610b606060830188610a8c565b610b6d60808301876109b8565b610b7a60a08301866109b8565b610b8760c083018561099a565b610b9460e083018461099a565b9998505050505050505050565b60006020820190508181036000830152610bba81610a00565b9050919050565b60006020820190508181036000830152610bda81610a23565b9050919050565b60006020820190508181036000830152610bfa81610a46565b9050919050565b60006020820190508181036000830152610c1a81610a69565b9050919050565b600061012082019050610c37600083018c610a8c565b8181036020830152610c49818b6109c7565b90508181036040830152610c5d818a6109c7565b9050610c6c6060830189610a8c565b610c796080830188610a8c565b610c8660a0830187610a8c565b610c9360c0830186610a8c565b610ca060e083018561099a565b610cae61010083018461099a565b9a9950505050505050505050565b6000610cc6610cd7565b9050610cd28282610e76565b919050565b6000604051905090565b600067ffffffffffffffff821115610cfc57610cfb610f05565b5b610d0582610f34565b9050602081019050919050565b600081519050919050565b600082825260208201905092915050565b6000610d3982610dc2565b9150610d4483610dc2565b9250827fffffffffffffffffffffffffffffffffffffffffffffffffffffffffffffffff03821115610d7957610d78610ea7565b5b828201905092915050565b6000610d8f82610da2565b9050919050565b60008115159050919050565b600073ffffffffffffffffffffffffffffffffffffffff82169050919050565b6000819050919050565b6000610dd782610dde565b9050919050565b6000610de982610da2565b9050919050565b6000610dfb82610dc2565b9050919050565b82818337600083830152505050565b60005b83811015610e2f578082015181840152602081019050610e14565b83811115610e3e576000848401525b50505050565b60006002820490506001821680610e5c57607f821691505b60208210811415610e7057610e6f610ed6565b5b50919050565b610e7f82610f34565b810181811067ffffffffffffffff82111715610e9e57610e9d610f05565b5b80604052505050565b7f4e487b7100000000000000000000000000000000000000000000000000000000600052601160045260246000fd5b7f4e487b7100000000000000000000000000000000000000000000000000000000600052602260045260246000fd5b7f4e487b7100000000000000000000000000000000000000000000000000000000600052604160045260246000fd5b6000601f19601f8301169050919050565b7f50726f706f73616c2068617320656e6465640000000000000000000000000000600082015250565b7f496e76616c69642070726f706f73616c20494400000000000000000000000000600082015250565b7f4f6e6c79207468652061646d696e2063616e206372656174652070726f706f7360008201527f616c730000000000000000000000000000000000000000000000000000000000602082015250565b7f50726f706f73616c20697320636c6f7365640000000000000000000000000000600082015250565b61101881610d84565b811461102357600080fd5b50565b61102f81610dc2565b811461103a57600080fd5b5056fea26469706673582212205676243cb5db36a878d43dc1a976e5fa14f2c441d661bfd03df7d683fca9f12064736f6c63430008040033",
  "linkReferences": {},
  "deployedLinkReferences": {}
}